:100000000C9434000C9432020C9471020C94510044
:100010000C9451000C9451000C9451000C9451001C
:100020000C9451000C9451000C9451000C9451000C
:100030000C9451000C9451000C9451000C945100FC
:100040000C94F4020C9451000C9451000C94510047
:100050000C9451000C9451000C9451000C945100DC
:100060000C9451000C94510011241FBECFEFD8E026
:10007000DEBFCDBF11E0A0E0B1E0E2E6F6E002C0F5
:1000800005900D92A230B107D9F711E0A2E0B1E0DE
:1000900001C01D92A730B107E1F70E9496020C94AF
:1000A0002F030C940000DF93CF93CDB7DEB7AAE700
:1000B000B0E0EAE7F0E0808180648C93E9E7F0E06B
:1000C0008081882F90E090930501809304018091B6
:1000D000040190910501982F882790930501809342
:1000E0000401E8E7F0E08081282F30E080910401EE
:1000F00090910501822B932B90930501809304012D
:10010000CF91DF910895DF93CF93CDB7DEB7ACE702
:10011000B0E0ECE7F0E080818F778C93ACE7B0E063
:10012000ECE7F0E0808180648C93ACE7B0E0ECE732
:10013000F0E0808185608C93ACE7B0E0ECE7F0E024
:100140008081857F8C93ACE7B0E0ECE7F0E08081C4
:100150008F7D8C93AAE7B0E0EAE7F0E080818068C9
:100160008C93CF91DF910895DF93CF93CDB7DEB716
:100170000E945300809106018170882309F05FC0BE
:1001800080910401909105019923A4F080910401CC
:1001900090910501833391056CF48FEB90E090937F
:1001A00001018093000180910001909101010E9462
:1001B000A50245C08091040190910501833391050A
:1001C000A4F08091040190910501873991056CF4A8
:1001D00080E890E0909301018093000180910001FC
:1001E000909101010E94A5022AC080910401909182
:1001F000050187399105A4F08091040190910501D2
:100200008B3F91056CF480E490E090930101809322
:10021000000180910001909101010E94A5020FC090
:1002200080910401909105018B3F910544F010925B
:1002300001011092000180E090E00E94A5028091EF
:10024000060181708823F1F0809106018270882375
:1002500069F08FEB90E09093010180930001809111
:100260000001909101010E94A5020CC080E890E07D
:100270009093010180930001809100019091010110
:100280000E94A502CF91DF910895DF93CF93CDB760
:10029000DEB70E945300809106018170882309F027
:1002A0006AC080910401909105019923B4F0809176
:1002B000040190910501833391057CF48091000144
:1002C000909101018F3B910541F0ABE2B0E0EBE290
:1002D000F0E0808180688C934EC080910401909101
:1002E000050183339105B4F08091040190910501DB
:1002F000873991057CF4809100019091010180384B
:10030000910541F0ABE2B0E0EBE2F0E08081806883
:100310008C9331C08091040190910501873991053A
:10032000B4F080910401909105018B3F91057CF41C
:1003300080910001909101018034910541F0ABE280
:10034000B0E0EBE2F0E0808180688C9314C0809193
:100350000401909105018B3F91056CF080910001A3
:1003600090910101009739F0ABE2B0E0EBE2F0E0F0
:10037000808180688C93CF91DF910895DF93CF9334
:10038000CDB7DEB7AAE2B0E0EAE2F0E080818260B9
:100390008C93AAE2B0E0EAE2F0E080818B7F8C935C
:1003A000ABE2B0E0EBE2F0E0808184608C93AAE203
:1003B000B0E0EAE2F0E08081877F8C93ABE2B0E0CE
:1003C000EBE2F0E0808188608C93A7E2B0E0E7E2A6
:1003D000F0E080818F7D8C93AAE2B0E0EAE2F0E069
:1003E000808180648C93CF91DF910895DF93CF93C8
:1003F000CDB7DEB7A9E6B0E0E9E6F0E080818D7F19
:100400008C93A9E6B0E0E9E6F0E0808181608C930E
:10041000ADE3B0E0EDE3F0E0808181608C93A9E68C
:10042000B0E0E9E6F0E080818D7F8C93A9E6B0E052
:10043000E9E6F0E0808184608C93ADE3B0E0EDE329
:10044000F0E0808182608C937894809106018E7FA9
:1004500080930601809106018D7F80930601CF91E4
:10046000DF9108951F920F920FB60F9211248F9370
:100470009F93AF93BF93EF93FF93DF93CF93CDB74A
:10048000DEB7F89480910601817080958170982F75
:100490009170809106018E7F892B80930601809157
:1004A00006018170882341F4ABE2B0E0EBE2F0E0BA
:1004B000808182608C9307C0ABE2B0E0EBE2F0E0B9
:1004C00080818D7F8C937894CF91DF91FF91EF9114
:1004D000BF91AF919F918F910F900FBE0F901F9082
:1004E00018951F920F920FB60F9211248F939F931E
:1004F000DF93CF93CDB7DEB7F89480910601869550
:100500008170809581708170982F990F809106017C
:100510008D7F892B809306017894CF91DF919F91F5
:100520008F910F900FBE0F901F901895DF93CF9370
:10053000CDB7DEB70E94BE010E94F6010E94830083
:100540000E94C3020E94B400FDCFDF93CF9300D07E
:10055000CDB7DEB79A838983A4E4B0E0E4E4F0E0A9
:10056000808183688C93E7E4F0E089818083A5E44F
:10057000B0E0E5E4F0E0808181608C930F900F9013
:10058000CF91DF910895DF93CF93CDB7DEB7E4E449
:10059000F0E01082E6E4F0E01082A5E4B0E0E5E4EB
:1005A000F0E0808185608C93A5E4B0E0E5E4F0E0C4
:1005B00080818D7F8C93AEE6B0E0EEE6F0E0808146
:1005C00081608C937894AAE2B0E0EAE2F0E0808166
:1005D00080688C93ABE2B0E0EBE2F0E080818F7753
:1005E0008C93CF91DF9108951F920F920FB60F92C7
:1005F00011242F933F934F935F936F937F938F9328
:100600009F93AF93BF93EF93FF93DF93CF93CDB7B8
:10061000DEB780910201909103010196909303014E
:1006200080930201809102019091030121E08133C6
:10063000920710F00E944501CF91DF91FF91EF9159
:10064000BF91AF919F918F917F916F915F914F91EA
:100650003F912F910F900FBE0F901F901895F89417
:02066000FFCFCA
:020662004B004B
:00000001FF
